{
  "contractName": "Rooms",
  "abi": [
    {
      "inputs": [
        {
          "internalType": "string",
          "name": "accountId",
          "type": "string"
        },
        {
          "internalType": "string",
          "name": "r_owner",
          "type": "string"
        },
        {
          "internalType": "string",
          "name": "r_hash",
          "type": "string"
        },
        {
          "internalType": "uint256",
          "name": "r_ID",
          "type": "uint256"
        }
      ],
      "name": "setRoomInfo",
      "outputs": [],
      "stateMutability": "nonpayable",
      "type": "function"
    },
    {
      "inputs": [
        {
          "internalType": "string",
          "name": "accountId",
          "type": "string"
        }
      ],
      "name": "getRoomInfo",
      "outputs": [
        {
          "components": [
            {
              "internalType": "string",
              "name": "roomHash",
              "type": "string"
            },
            {
              "internalType": "string",
              "name": "roomOwner",
              "type": "string"
            },
            {
              "internalType": "uint256",
              "name": "roomID",
              "type": "uint256"
            }
          ],
          "internalType": "struct Rooms.Room[]",
          "name": "",
          "type": "tuple[]"
        }
      ],
      "stateMutability": "view",
      "type": "function",
      "constant": true
    }
  ],
  "bytecode": "0x608060405234801561001057600080fd5b50610a9c806100206000396000f3fe608060405234801561001057600080fd5b50600436106100365760003560e01c80631eb295521461003b5780633d600e7c14610057575b600080fd5b61005560048036038101906100509190610468565b610087565b005b610071600480360381019061006c9190610523565b61012d565b60405161007e9190610713565b60405180910390f35b600060405180606001604052808481526020018581526020018381525090506000856040516100b69190610771565b908152602001604051809103902081908060018154018082558091505060019003906000526020600020906003020160009091909190915060008201518160000190816101039190610994565b5060208201518160010190816101199190610994565b506040820151816002015550505050505050565b606060008260405161013f9190610771565b9081526020016040518091039020805480602002602001604051908101604052809291908181526020016000905b828210156102cd57838290600052602060002090600302016040518060600160405290816000820180546101a0906107b7565b80601f01602080910402602001604051908101604052809291908181526020018280546101cc906107b7565b80156102195780601f106101ee57610100808354040283529160200191610219565b820191906000526020600020905b8154815290600101906020018083116101fc57829003601f168201915b50505050508152602001600182018054610232906107b7565b80601f016020809104026020016040519081016040528092919081815260200182805461025e906107b7565b80156102ab5780601f10610280576101008083540402835291602001916102ab565b820191906000526020600020905b81548152906001019060200180831161028e57829003601f168201915b505050505081526020016002820154815250508152602001906001019061016d565b505050509050919050565b6000604051905090565b600080fd5b600080fd5b600080fd5b600080fd5b6000601f19601f8301169050919050565b7f4e487b7100000000000000000000000000000000000000000000000000000000600052604160045260246000fd5b61033f826102f6565b810181811067ffffffffffffffff8211171561035e5761035d610307565b5b80604052505050565b60006103716102d8565b905061037d8282610336565b919050565b600067ffffffffffffffff82111561039d5761039c610307565b5b6103a6826102f6565b9050602081019050919050565b82818337600083830152505050565b60006103d56103d084610382565b610367565b9050828152602081018484840111156103f1576103f06102f1565b5b6103fc8482856103b3565b509392505050565b600082601f830112610419576104186102ec565b5b81356104298482602086016103c2565b91505092915050565b6000819050919050565b61044581610432565b811461045057600080fd5b50565b6000813590506104628161043c565b92915050565b60008060008060808587031215610482576104816102e2565b5b600085013567ffffffffffffffff8111156104a05761049f6102e7565b5b6104ac87828801610404565b945050602085013567ffffffffffffffff8111156104cd576104cc6102e7565b5b6104d987828801610404565b935050604085013567ffffffffffffffff8111156104fa576104f96102e7565b5b61050687828801610404565b925050606061051787828801610453565b91505092959194509250565b600060208284031215610539576105386102e2565b5b600082013567ffffffffffffffff811115610557576105566102e7565b5b61056384828501610404565b91505092915050565b600081519050919050565b600082825260208201905092915050565b6000819050602082019050919050565b600081519050919050565b600082825260208201905092915050565b60005b838110156105d25780820151818401526020810190506105b7565b60008484015250505050565b60006105e982610598565b6105f381856105a3565b93506106038185602086016105b4565b61060c816102f6565b840191505092915050565b61062081610432565b82525050565b6000606083016000830151848203600086015261064382826105de565b9150506020830151848203602086015261065d82826105de565b91505060408301516106726040860182610617565b508091505092915050565b60006106898383610626565b905092915050565b6000602082019050919050565b60006106a98261056c565b6106b38185610577565b9350836020820285016106c585610588565b8060005b8581101561070157848403895281516106e2858261067d565b94506106ed83610691565b925060208a019950506001810190506106c9565b50829750879550505050505092915050565b6000602082019050818103600083015261072d818461069e565b905092915050565b600081905092915050565b600061074b82610598565b6107558185610735565b93506107658185602086016105b4565b80840191505092915050565b600061077d8284610740565b915081905092915050565b7f4e487b7100000000000000000000000000000000000000000000000000000000600052602260045260246000fd5b600060028204905060018216806107cf57607f821691505b6020821081036107e2576107e1610788565b5b50919050565b60008190508160005260206000209050919050565b60006020601f8301049050919050565b600082821b905092915050565b60006008830261084a7fffffffffffffffffffffffffffffffffffffffffffffffffffffffffffffffff8261080d565b610854868361080d565b95508019841693508086168417925050509392505050565b6000819050919050565b600061089161088c61088784610432565b61086c565b610432565b9050919050565b6000819050919050565b6108ab83610876565b6108bf6108b782610898565b84845461081a565b825550505050565b600090565b6108d46108c7565b6108df8184846108a2565b505050565b5b81811015610903576108f86000826108cc565b6001810190506108e5565b5050565b601f82111561094857610919816107e8565b610922846107fd565b81016020851015610931578190505b61094561093d856107fd565b8301826108e4565b50505b505050565b600082821c905092915050565b600061096b6000198460080261094d565b1980831691505092915050565b6000610984838361095a565b9150826002028217905092915050565b61099d82610598565b67ffffffffffffffff8111156109b6576109b5610307565b5b6109c082546107b7565b6109cb828285610907565b600060209050601f8311600181146109fe57600084156109ec578287015190505b6109f68582610978565b865550610a5e565b601f198416610a0c866107e8565b60005b82811015610a3457848901518255600182019150602085019450602081019050610a0f565b86831015610a515784890151610a4d601f89168261095a565b8355505b6001600288020188555050505b50505050505056fea264697066735822122043f112a6b9c5d788c35993267c2d693160c6456323325e31722df56044466cbf64736f6c63430008110033",
  "immutableReferences": {},
  "source": "// SPDX-License-Identifier: MIT\npragma solidity >=0.8.7;\n\ncontract Rooms {\n    struct Room{\n        string roomHash;\n        string roomOwner;\n        uint256 roomID;\n    }\n\n    mapping (string => Room[]) AllRooms;\n\n    function setRoomInfo(string memory accountId, string memory r_owner, string memory r_hash, uint256 r_ID) public {\n        Room memory room = Room({roomHash: r_hash, roomOwner: r_owner, roomID: r_ID});\n        AllRooms[accountId].push(room);\n    }\n\n    function getRoomInfo(string memory accountId) public view returns(Room[] memory) {\n        return AllRooms[accountId];\n    }\n\n}",
  "sourcePath": "C:\\Users\\pasfi\\smart-building-main\\truffle\\contracts\\Rooms.sol",
  "compiler": {
    "name": "solc",
    "version": "0.8.17+commit.8df45f5f.Emscripten.clang"
  },
  "schemaVersion": "3.4.10",
  "updatedAt": "2022-12-23T18:26:06.355Z",
  "networkType": "ethereum",
  "devdoc": {
    "kind": "dev",
    "methods": {},
    "version": 1
  },
  "userdoc": {
    "kind": "user",
    "methods": {},
    "version": 1
  }
}