{
  "contractName": "Rooms",
  "abi": [
    {
      "inputs": [
        {
          "internalType": "uint256",
          "name": "roomID",
          "type": "uint256"
        },
        {
          "internalType": "string",
          "name": "r_owner",
          "type": "string"
        },
        {
          "internalType": "string",
          "name": "r_hash",
          "type": "string"
        }
      ],
      "name": "setRoomInfo",
      "outputs": [],
      "stateMutability": "nonpayable",
      "type": "function"
    },
    {
      "inputs": [
        {
          "internalType": "uint256",
          "name": "roomID",
          "type": "uint256"
        }
      ],
      "name": "getRoomInfo",
      "outputs": [
        {
          "internalType": "string",
          "name": "r_owner",
          "type": "string"
        },
        {
          "internalType": "string",
          "name": "r_hash",
          "type": "string"
        }
      ],
      "stateMutability": "view",
      "type": "function",
      "constant": true
    }
  ],
  "bytecode": "0x608060405234801561001057600080fd5b50610833806100206000396000f3fe608060405234801561001057600080fd5b50600436106100365760003560e01c806335cb09461461003b5780636790d2b514610057575b600080fd5b610055600480360381019061005091906103b1565b610088565b005b610071600480360381019061006c919061043c565b6100d3565b60405161007f9291906104e8565b60405180910390f35b8160008085815260200190815260200160002060000190816100aa919061072b565b508060008085815260200190815260200160002060010190816100cd919061072b565b50505050565b60608060008084815260200190815260200160002060000160008085815260200190815260200160002060010181805461010c9061054e565b80601f01602080910402602001604051908101604052809291908181526020018280546101389061054e565b80156101855780601f1061015a57610100808354040283529160200191610185565b820191906000526020600020905b81548152906001019060200180831161016857829003601f168201915b505050505091508080546101989061054e565b80601f01602080910402602001604051908101604052809291908181526020018280546101c49061054e565b80156102115780601f106101e657610100808354040283529160200191610211565b820191906000526020600020905b8154815290600101906020018083116101f457829003601f168201915b5050505050905091509150915091565b6000604051905090565b600080fd5b600080fd5b6000819050919050565b61024881610235565b811461025357600080fd5b50565b6000813590506102658161023f565b92915050565b600080fd5b600080fd5b6000601f19601f8301169050919050565b7f4e487b7100000000000000000000000000000000000000000000000000000000600052604160045260246000fd5b6102be82610275565b810181811067ffffffffffffffff821117156102dd576102dc610286565b5b80604052505050565b60006102f0610221565b90506102fc82826102b5565b919050565b600067ffffffffffffffff82111561031c5761031b610286565b5b61032582610275565b9050602081019050919050565b82818337600083830152505050565b600061035461034f84610301565b6102e6565b9050828152602081018484840111156103705761036f610270565b5b61037b848285610332565b509392505050565b600082601f8301126103985761039761026b565b5b81356103a8848260208601610341565b91505092915050565b6000806000606084860312156103ca576103c961022b565b5b60006103d886828701610256565b935050602084013567ffffffffffffffff8111156103f9576103f8610230565b5b61040586828701610383565b925050604084013567ffffffffffffffff81111561042657610425610230565b5b61043286828701610383565b9150509250925092565b6000602082840312156104525761045161022b565b5b600061046084828501610256565b91505092915050565b600081519050919050565b600082825260208201905092915050565b60005b838110156104a3578082015181840152602081019050610488565b60008484015250505050565b60006104ba82610469565b6104c48185610474565b93506104d4818560208601610485565b6104dd81610275565b840191505092915050565b6000604082019050818103600083015261050281856104af565b9050818103602083015261051681846104af565b90509392505050565b7f4e487b7100000000000000000000000000000000000000000000000000000000600052602260045260246000fd5b6000600282049050600182168061056657607f821691505b6020821081036105795761057861051f565b5b50919050565b60008190508160005260206000209050919050565b60006020601f8301049050919050565b600082821b905092915050565b6000600883026105e17fffffffffffffffffffffffffffffffffffffffffffffffffffffffffffffffff826105a4565b6105eb86836105a4565b95508019841693508086168417925050509392505050565b6000819050919050565b600061062861062361061e84610235565b610603565b610235565b9050919050565b6000819050919050565b6106428361060d565b61065661064e8261062f565b8484546105b1565b825550505050565b600090565b61066b61065e565b610676818484610639565b505050565b5b8181101561069a5761068f600082610663565b60018101905061067c565b5050565b601f8211156106df576106b08161057f565b6106b984610594565b810160208510156106c8578190505b6106dc6106d485610594565b83018261067b565b50505b505050565b600082821c905092915050565b6000610702600019846008026106e4565b1980831691505092915050565b600061071b83836106f1565b9150826002028217905092915050565b61073482610469565b67ffffffffffffffff81111561074d5761074c610286565b5b610757825461054e565b61076282828561069e565b600060209050601f8311600181146107955760008415610783578287015190505b61078d858261070f565b8655506107f5565b601f1984166107a38661057f565b60005b828110156107cb578489015182556001820191506020850194506020810190506107a6565b868310156107e857848901516107e4601f8916826106f1565b8355505b6001600288020188555050505b50505050505056fea26469706673582212201bb715de9738be40aca5eaf2d00d289cdb7cbfca5f4fa2a4cd53fb1b8f56518964736f6c63430008110033",
  "immutableReferences": {},
  "source": "// SPDX-License-Identifier: MIT\npragma solidity >=0.8.7;\n\ncontract Rooms {\n    struct Room{\n        string roomOwner;\n        string roomHash;\n    }\n\n    mapping (uint256 => Room) AllRooms;\n\n    function setRoomInfo(uint256 roomID, string memory r_owner, string memory r_hash) public {\n        AllRooms[roomID].roomOwner = r_owner;\n        AllRooms[roomID].roomHash = r_hash;\n    }\n\n    function getRoomInfo(uint256 roomID) public view returns(string memory r_owner, string memory r_hash) {\n        return (AllRooms[roomID].roomOwner, AllRooms[roomID].roomHash);\n    }\n\n}",
  "sourcePath": "C:\\Users\\pasfi\\Downloads\\smart-building-main\\smart-building-main\\truffle\\contracts\\Rooms.sol",
  "compiler": {
    "name": "solc",
    "version": "0.8.17+commit.8df45f5f.Emscripten.clang"
  },
  "schemaVersion": "3.4.10",
  "updatedAt": "2022-12-16T15:22:56.575Z",
  "networkType": "ethereum",
  "devdoc": {
    "kind": "dev",
    "methods": {},
    "version": 1
  },
  "userdoc": {
    "kind": "user",
    "methods": {},
    "version": 1
  }
}