{
  "contractName": "Rooms",
  "abi": [
    {
      "anonymous": false,
      "inputs": [
        {
          "indexed": false,
          "internalType": "uint256",
          "name": "room",
          "type": "uint256"
        },
        {
          "indexed": false,
          "internalType": "string",
          "name": "account",
          "type": "string"
        }
      ],
      "name": "showID",
      "type": "event"
    },
    {
      "inputs": [
        {
          "internalType": "string",
          "name": "accountId",
          "type": "string"
        },
        {
          "internalType": "string",
          "name": "r_owner",
          "type": "string"
        },
        {
          "internalType": "string",
          "name": "r_hash",
          "type": "string"
        },
        {
          "internalType": "uint256",
          "name": "r_ID",
          "type": "uint256"
        }
      ],
      "name": "setRoomInfo",
      "outputs": [],
      "stateMutability": "nonpayable",
      "type": "function"
    },
    {
      "inputs": [
        {
          "internalType": "string",
          "name": "accountId",
          "type": "string"
        },
        {
          "internalType": "uint256",
          "name": "r_Id",
          "type": "uint256"
        }
      ],
      "name": "checkId",
      "outputs": [
        {
          "internalType": "bool",
          "name": "",
          "type": "bool"
        }
      ],
      "stateMutability": "view",
      "type": "function",
      "constant": true
    },
    {
      "inputs": [
        {
          "internalType": "string",
          "name": "accountId",
          "type": "string"
        }
      ],
      "name": "getRoomInfo",
      "outputs": [
        {
          "components": [
            {
              "internalType": "string",
              "name": "roomHash",
              "type": "string"
            },
            {
              "internalType": "string",
              "name": "roomOwner",
              "type": "string"
            },
            {
              "internalType": "uint256",
              "name": "roomID",
              "type": "uint256"
            }
          ],
          "internalType": "struct Rooms.Room[]",
          "name": "",
          "type": "tuple[]"
        }
      ],
      "stateMutability": "view",
      "type": "function",
      "constant": true
    }
  ],
  "bytecode": "0x608060405234801561001057600080fd5b50611054806100206000396000f3fe608060405234801561001057600080fd5b50600436106100415760003560e01c80631eb29552146100465780633d600e7c14610062578063d8cbe21114610092575b600080fd5b610060600480360381019061005b919061085f565b6100c2565b005b61007c6004803603810190610077919061091a565b61031a565b6040516100899190610b0a565b60405180910390f35b6100ac60048036038101906100a79190610b2c565b6104c5565b6040516100b99190610ba3565b60405180910390f35b6100cc84826104c5565b6101ae57600060405180606001604052808481526020018581526020018381525090506000856040516100ff9190610bfa565b9081526020016040518091039020819080600181540180825580915050600190039060005260206000209060030201600090919091909150600082015181600001908161014c9190610e1d565b5060208201518160010190816101629190610e1d565b506040820151816002015550507f3307b62925b985ad81a8d5d7ac285ea6f5bbb482c96a817f4cc13f0bcf1bb9ca82866040516101a0929190610f48565b60405180910390a150610314565b600080856040516101bf9190610bfa565b908152602001604051809103902080549050905060005b8181101561031157826000876040516101ef9190610bfa565b9081526020016040518091039020828154811061020f5761020e610f78565b5b906000526020600020906003020160020154036102fe57836000876040516102379190610bfa565b9081526020016040518091039020828154811061025757610256610f78565b5b906000526020600020906003020160000190816102749190610e1d565b50846000876040516102869190610bfa565b908152602001604051809103902082815481106102a6576102a5610f78565b5b906000526020600020906003020160010190816102c39190610e1d565b507f3307b62925b985ad81a8d5d7ac285ea6f5bbb482c96a817f4cc13f0bcf1bb9ca83876040516102f5929190610f48565b60405180910390a15b808061030990610fd6565b9150506101d6565b50505b50505050565b606060008260405161032c9190610bfa565b9081526020016040518091039020805480602002602001604051908101604052809291908181526020016000905b828210156104ba578382906000526020600020906003020160405180606001604052908160008201805461038d90610c40565b80601f01602080910402602001604051908101604052809291908181526020018280546103b990610c40565b80156104065780601f106103db57610100808354040283529160200191610406565b820191906000526020600020905b8154815290600101906020018083116103e957829003601f168201915b5050505050815260200160018201805461041f90610c40565b80601f016020809104026020016040519081016040528092919081815260200182805461044b90610c40565b80156104985780601f1061046d57610100808354040283529160200191610498565b820191906000526020600020905b81548152906001019060200180831161047b57829003601f168201915b505050505081526020016002820154815250508152602001906001019061035a565b505050509050919050565b6000806000846040516104d89190610bfa565b9081526020016040518091039020805480602002602001604051908101604052809291908181526020016000905b82821015610666578382906000526020600020906003020160405180606001604052908160008201805461053990610c40565b80601f016020809104026020016040519081016040528092919081815260200182805461056590610c40565b80156105b25780601f10610587576101008083540402835291602001916105b2565b820191906000526020600020905b81548152906001019060200180831161059557829003601f168201915b505050505081526020016001820180546105cb90610c40565b80601f01602080910402602001604051908101604052809291908181526020018280546105f790610c40565b80156106445780601f1061061957610100808354040283529160200191610644565b820191906000526020600020905b81548152906001019060200180831161062757829003601f168201915b5050505050815260200160028201548152505081526020019060010190610506565b50505050905060008151905060005b818110156106c1578483828151811061069157610690610f78565b5b602002602001015160400151036106ae57600193505050506106c9565b80806106b990610fd6565b915050610675565b506000925050505b92915050565b6000604051905090565b600080fd5b600080fd5b600080fd5b600080fd5b6000601f19601f8301169050919050565b7f4e487b7100000000000000000000000000000000000000000000000000000000600052604160045260246000fd5b610736826106ed565b810181811067ffffffffffffffff82111715610755576107546106fe565b5b80604052505050565b60006107686106cf565b9050610774828261072d565b919050565b600067ffffffffffffffff821115610794576107936106fe565b5b61079d826106ed565b9050602081019050919050565b82818337600083830152505050565b60006107cc6107c784610779565b61075e565b9050828152602081018484840111156107e8576107e76106e8565b5b6107f38482856107aa565b509392505050565b600082601f8301126108105761080f6106e3565b5b81356108208482602086016107b9565b91505092915050565b6000819050919050565b61083c81610829565b811461084757600080fd5b50565b60008135905061085981610833565b92915050565b60008060008060808587031215610879576108786106d9565b5b600085013567ffffffffffffffff811115610897576108966106de565b5b6108a3878288016107fb565b945050602085013567ffffffffffffffff8111156108c4576108c36106de565b5b6108d0878288016107fb565b935050604085013567ffffffffffffffff8111156108f1576108f06106de565b5b6108fd878288016107fb565b925050606061090e8782880161084a565b91505092959194509250565b6000602082840312156109305761092f6106d9565b5b600082013567ffffffffffffffff81111561094e5761094d6106de565b5b61095a848285016107fb565b91505092915050565b600081519050919050565b600082825260208201905092915050565b6000819050602082019050919050565b600081519050919050565b600082825260208201905092915050565b60005b838110156109c95780820151818401526020810190506109ae565b60008484015250505050565b60006109e08261098f565b6109ea818561099a565b93506109fa8185602086016109ab565b610a03816106ed565b840191505092915050565b610a1781610829565b82525050565b60006060830160008301518482036000860152610a3a82826109d5565b91505060208301518482036020860152610a5482826109d5565b9150506040830151610a696040860182610a0e565b508091505092915050565b6000610a808383610a1d565b905092915050565b6000602082019050919050565b6000610aa082610963565b610aaa818561096e565b935083602082028501610abc8561097f565b8060005b85811015610af85784840389528151610ad98582610a74565b9450610ae483610a88565b925060208a01995050600181019050610ac0565b50829750879550505050505092915050565b60006020820190508181036000830152610b248184610a95565b905092915050565b60008060408385031215610b4357610b426106d9565b5b600083013567ffffffffffffffff811115610b6157610b606106de565b5b610b6d858286016107fb565b9250506020610b7e8582860161084a565b9150509250929050565b60008115159050919050565b610b9d81610b88565b82525050565b6000602082019050610bb86000830184610b94565b92915050565b600081905092915050565b6000610bd48261098f565b610bde8185610bbe565b9350610bee8185602086016109ab565b80840191505092915050565b6000610c068284610bc9565b915081905092915050565b7f4e487b7100000000000000000000000000000000000000000000000000000000600052602260045260246000fd5b60006002820490506001821680610c5857607f821691505b602082108103610c6b57610c6a610c11565b5b50919050565b60008190508160005260206000209050919050565b60006020601f8301049050919050565b600082821b905092915050565b600060088302610cd37fffffffffffffffffffffffffffffffffffffffffffffffffffffffffffffffff82610c96565b610cdd8683610c96565b95508019841693508086168417925050509392505050565b6000819050919050565b6000610d1a610d15610d1084610829565b610cf5565b610829565b9050919050565b6000819050919050565b610d3483610cff565b610d48610d4082610d21565b848454610ca3565b825550505050565b600090565b610d5d610d50565b610d68818484610d2b565b505050565b5b81811015610d8c57610d81600082610d55565b600181019050610d6e565b5050565b601f821115610dd157610da281610c71565b610dab84610c86565b81016020851015610dba578190505b610dce610dc685610c86565b830182610d6d565b50505b505050565b600082821c905092915050565b6000610df460001984600802610dd6565b1980831691505092915050565b6000610e0d8383610de3565b9150826002028217905092915050565b610e268261098f565b67ffffffffffffffff811115610e3f57610e3e6106fe565b5b610e498254610c40565b610e54828285610d90565b600060209050601f831160018114610e875760008415610e75578287015190505b610e7f8582610e01565b865550610ee7565b601f198416610e9586610c71565b60005b82811015610ebd57848901518255600182019150602085019450602081019050610e98565b86831015610eda5784890151610ed6601f891682610de3565b8355505b6001600288020188555050505b505050505050565b610ef881610829565b82525050565b600082825260208201905092915050565b6000610f1a8261098f565b610f248185610efe565b9350610f348185602086016109ab565b610f3d816106ed565b840191505092915050565b6000604082019050610f5d6000830185610eef565b8181036020830152610f6f8184610f0f565b90509392505050565b7f4e487b7100000000000000000000000000000000000000000000000000000000600052603260045260246000fd5b7f4e487b7100000000000000000000000000000000000000000000000000000000600052601160045260246000fd5b6000610fe182610829565b91507fffffffffffffffffffffffffffffffffffffffffffffffffffffffffffffffff820361101357611012610fa7565b5b60018201905091905056fea2646970667358221220e038897ebc5bc518cb66376e35212fc46979ea6785ef8ccc4f395d8354a0951f64736f6c63430008110033",
  "immutableReferences": {},
  "source": "// SPDX-License-Identifier: MIT\npragma solidity >=0.8.7;\n\ncontract Rooms {\n\n    struct Room{\n        string roomHash;\n        string roomOwner;\n        uint256  roomID;\n    }\n\n    mapping (string => Room[]) AllRooms;\n\n    event showID(\n        uint256 room,\n        string account\n    );\n\n    function setRoomInfo(string memory accountId, string memory r_owner, string memory r_hash, uint256 r_ID) public {\n        if(!checkId(accountId, r_ID)) {\n            Room memory room = Room({roomHash: r_hash, roomOwner: r_owner, roomID: r_ID});\n            AllRooms[accountId].push(room);\n            emit showID(r_ID, accountId);\n        } else {\n            uint l = AllRooms[accountId].length;\n            for(uint i=0; i< l; i++){\n                if(AllRooms[accountId][i].roomID == r_ID){\n                    AllRooms[accountId][i].roomHash = r_hash;\n                    AllRooms[accountId][i].roomOwner = r_owner;\n                    emit showID(r_ID, accountId);\n                } \n            }\n        }    \n    }\n\n    function checkId(string memory accountId, uint256 r_Id) public view returns (bool){ \n        Room[] memory arrayRooms = AllRooms[accountId];\n        uint l = arrayRooms.length;\n        for (uint i = 0; i<l; i++)\n            if(arrayRooms[i].roomID == r_Id)\n                return true;\n            return false;\n    }\n\n    function getRoomInfo(string memory accountId) public view returns(Room[] memory) {\n        return AllRooms[accountId];\n    }\n    \n}",
  "sourcePath": "C:\\Users\\pasfi\\smart-building-main\\truffle\\contracts\\Rooms.sol",
  "compiler": {
    "name": "solc",
    "version": "0.8.17+commit.8df45f5f.Emscripten.clang"
  },
  "schemaVersion": "3.4.10",
  "updatedAt": "2023-01-07T15:01:45.628Z",
  "networkType": "ethereum",
  "devdoc": {
    "kind": "dev",
    "methods": {},
    "version": 1
  },
  "userdoc": {
    "kind": "user",
    "methods": {},
    "version": 1
  }
}