{
  "contractName": "Rooms",
  "abi": [
    {
      "anonymous": false,
      "inputs": [
        {
          "indexed": false,
          "internalType": "string",
          "name": "room",
          "type": "string"
        },
        {
          "indexed": false,
          "internalType": "string",
          "name": "account",
          "type": "string"
        }
      ],
      "name": "showID",
      "type": "event"
    },
    {
      "inputs": [
        {
          "internalType": "string",
          "name": "accountId",
          "type": "string"
        },
        {
          "internalType": "string",
          "name": "r_owner",
          "type": "string"
        },
        {
          "internalType": "string",
          "name": "r_hash",
          "type": "string"
        },
        {
          "internalType": "string",
          "name": "r_ID",
          "type": "string"
        }
      ],
      "name": "setRoomInfo",
      "outputs": [],
      "stateMutability": "nonpayable",
      "type": "function"
    },
    {
      "inputs": [
        {
          "internalType": "string",
          "name": "accountId",
          "type": "string"
        }
      ],
      "name": "getRoomInfo",
      "outputs": [
        {
          "components": [
            {
              "internalType": "string",
              "name": "roomHash",
              "type": "string"
            },
            {
              "internalType": "string",
              "name": "roomOwner",
              "type": "string"
            },
            {
              "internalType": "string",
              "name": "roomID",
              "type": "string"
            }
          ],
          "internalType": "struct Rooms.Room[]",
          "name": "",
          "type": "tuple[]"
        }
      ],
      "stateMutability": "view",
      "type": "function",
      "constant": true
    }
  ],
  "bytecode": "0x608060405234801561001057600080fd5b50610bd2806100206000396000f3fe608060405234801561001057600080fd5b50600436106100365760003560e01c80633d600e7c1461003b578063fa3db8b91461006b575b600080fd5b610055600480360381019061005091906104ff565b610087565b60405161006291906106e7565b60405180910390f35b61008560048036038101906100809190610709565b6102ba565b005b6060600082604051610099919061081c565b9081526020016040518091039020805480602002602001604051908101604052809291908181526020016000905b828210156102af57838290600052602060002090600302016040518060600160405290816000820180546100fa90610862565b80601f016020809104026020016040519081016040528092919081815260200182805461012690610862565b80156101735780601f1061014857610100808354040283529160200191610173565b820191906000526020600020905b81548152906001019060200180831161015657829003601f168201915b5050505050815260200160018201805461018c90610862565b80601f01602080910402602001604051908101604052809291908181526020018280546101b890610862565b80156102055780601f106101da57610100808354040283529160200191610205565b820191906000526020600020905b8154815290600101906020018083116101e857829003601f168201915b5050505050815260200160028201805461021e90610862565b80601f016020809104026020016040519081016040528092919081815260200182805461024a90610862565b80156102975780601f1061026c57610100808354040283529160200191610297565b820191906000526020600020905b81548152906001019060200180831161027a57829003601f168201915b505050505081525050815260200190600101906100c7565b505050509050919050565b600060405180606001604052808481526020018581526020018381525090506000856040516102e9919061081c565b908152602001604051809103902081908060018154018082558091505060019003906000526020600020906003020160009091909190915060008201518160000190816103369190610a49565b50602082015181600101908161034c9190610a49565b5060408201518160020190816103629190610a49565b5050507f919f02cad7b705dc156ddb3c52790e9b14e05b5b7312a3e24dd63c16b7e1321b8286604051610396929190610b65565b60405180910390a15050505050565b6000604051905090565b600080fd5b600080fd5b600080fd5b600080fd5b6000601f19601f8301169050919050565b7f4e487b7100000000000000000000000000000000000000000000000000000000600052604160045260246000fd5b61040c826103c3565b810181811067ffffffffffffffff8211171561042b5761042a6103d4565b5b80604052505050565b600061043e6103a5565b905061044a8282610403565b919050565b600067ffffffffffffffff82111561046a576104696103d4565b5b610473826103c3565b9050602081019050919050565b82818337600083830152505050565b60006104a261049d8461044f565b610434565b9050828152602081018484840111156104be576104bd6103be565b5b6104c9848285610480565b509392505050565b600082601f8301126104e6576104e56103b9565b5b81356104f684826020860161048f565b91505092915050565b600060208284031215610515576105146103af565b5b600082013567ffffffffffffffff811115610533576105326103b4565b5b61053f848285016104d1565b91505092915050565b600081519050919050565b600082825260208201905092915050565b6000819050602082019050919050565b600081519050919050565b600082825260208201905092915050565b60005b838110156105ae578082015181840152602081019050610593565b60008484015250505050565b60006105c582610574565b6105cf818561057f565b93506105df818560208601610590565b6105e8816103c3565b840191505092915050565b6000606083016000830151848203600086015261061082826105ba565b9150506020830151848203602086015261062a82826105ba565b9150506040830151848203604086015261064482826105ba565b9150508091505092915050565b600061065d83836105f3565b905092915050565b6000602082019050919050565b600061067d82610548565b6106878185610553565b93508360208202850161069985610564565b8060005b858110156106d557848403895281516106b68582610651565b94506106c183610665565b925060208a0199505060018101905061069d565b50829750879550505050505092915050565b600060208201905081810360008301526107018184610672565b905092915050565b60008060008060808587031215610723576107226103af565b5b600085013567ffffffffffffffff811115610741576107406103b4565b5b61074d878288016104d1565b945050602085013567ffffffffffffffff81111561076e5761076d6103b4565b5b61077a878288016104d1565b935050604085013567ffffffffffffffff81111561079b5761079a6103b4565b5b6107a7878288016104d1565b925050606085013567ffffffffffffffff8111156107c8576107c76103b4565b5b6107d4878288016104d1565b91505092959194509250565b600081905092915050565b60006107f682610574565b61080081856107e0565b9350610810818560208601610590565b80840191505092915050565b600061082882846107eb565b915081905092915050565b7f4e487b7100000000000000000000000000000000000000000000000000000000600052602260045260246000fd5b6000600282049050600182168061087a57607f821691505b60208210810361088d5761088c610833565b5b50919050565b60008190508160005260206000209050919050565b60006020601f8301049050919050565b600082821b905092915050565b6000600883026108f57fffffffffffffffffffffffffffffffffffffffffffffffffffffffffffffffff826108b8565b6108ff86836108b8565b95508019841693508086168417925050509392505050565b6000819050919050565b6000819050919050565b600061094661094161093c84610917565b610921565b610917565b9050919050565b6000819050919050565b6109608361092b565b61097461096c8261094d565b8484546108c5565b825550505050565b600090565b61098961097c565b610994818484610957565b505050565b5b818110156109b8576109ad600082610981565b60018101905061099a565b5050565b601f8211156109fd576109ce81610893565b6109d7846108a8565b810160208510156109e6578190505b6109fa6109f2856108a8565b830182610999565b50505b505050565b600082821c905092915050565b6000610a2060001984600802610a02565b1980831691505092915050565b6000610a398383610a0f565b9150826002028217905092915050565b610a5282610574565b67ffffffffffffffff811115610a6b57610a6a6103d4565b5b610a758254610862565b610a808282856109bc565b600060209050601f831160018114610ab35760008415610aa1578287015190505b610aab8582610a2d565b865550610b13565b601f198416610ac186610893565b60005b82811015610ae957848901518255600182019150602085019450602081019050610ac4565b86831015610b065784890151610b02601f891682610a0f565b8355505b6001600288020188555050505b505050505050565b600082825260208201905092915050565b6000610b3782610574565b610b418185610b1b565b9350610b51818560208601610590565b610b5a816103c3565b840191505092915050565b60006040820190508181036000830152610b7f8185610b2c565b90508181036020830152610b938184610b2c565b9050939250505056fea2646970667358221220c85e583199046ab4605214577b5d1afee178780b6a4f397d61a9c93400fc9e2f64736f6c63430008110033",
  "immutableReferences": {},
  "source": "// SPDX-License-Identifier: MIT\npragma solidity >=0.8.7;\n\ncontract Rooms {\n    struct Room{\n        string roomHash;\n        string roomOwner;\n        string  roomID;\n    }\n\n    event showID(\n        string room,\n        string account\n    );\n\n    mapping (string => Room[]) AllRooms;\n\n    function setRoomInfo(string memory accountId, string memory r_owner, string memory r_hash, string memory r_ID) public {\n        Room memory room = Room({roomHash: r_hash, roomOwner: r_owner, roomID: r_ID});\n        AllRooms[accountId].push(room);\n        emit showID(r_ID, accountId);\n    }\n\n    function getRoomInfo(string memory accountId) public view returns(Room[] memory) {\n        return AllRooms[accountId];\n    }\n}",
  "sourcePath": "C:\\Users\\pasfi\\smart-building-main\\truffle\\contracts\\Rooms.sol",
  "compiler": {
    "name": "solc",
    "version": "0.8.17+commit.8df45f5f.Emscripten.clang"
  },
  "schemaVersion": "3.4.10",
  "updatedAt": "2023-01-03T20:45:41.206Z",
  "networkType": "ethereum",
  "devdoc": {
    "kind": "dev",
    "methods": {},
    "version": 1
  },
  "userdoc": {
    "kind": "user",
    "methods": {},
    "version": 1
  }
}