{
  "contractName": "Rooms",
  "abi": [
    {
      "inputs": [
        {
          "internalType": "string",
          "name": "accountId",
          "type": "string"
        },
        {
          "internalType": "string",
          "name": "r_owner",
          "type": "string"
        },
        {
          "internalType": "string",
          "name": "r_hash",
          "type": "string"
        },
        {
          "internalType": "uint256",
          "name": "roomID",
          "type": "uint256"
        }
      ],
      "name": "setRoomInfo",
      "outputs": [],
      "stateMutability": "nonpayable",
      "type": "function"
    },
    {
      "inputs": [
        {
          "internalType": "string",
          "name": "accountId",
          "type": "string"
        }
      ],
      "name": "getRoomInfo",
      "outputs": [
        {
          "internalType": "string",
          "name": "r_owner",
          "type": "string"
        },
        {
          "internalType": "string",
          "name": "r_hash",
          "type": "string"
        },
        {
          "internalType": "uint256",
          "name": "roomID",
          "type": "uint256"
        }
      ],
      "stateMutability": "view",
      "type": "function",
      "constant": true
    }
  ],
  "bytecode": "0x608060405234801561001057600080fd5b5061096e806100206000396000f3fe608060405234801561001057600080fd5b50600436106100365760003560e01c80631eb295521461003b5780633d600e7c14610057575b600080fd5b61005560048036038101906100509190610430565b610089565b005b610071600480360381019061006c91906104eb565b610113565b604051610080939291906105c2565b60405180910390f35b8260008560405161009a9190610643565b908152602001604051809103902060010190816100b79190610866565b50816000856040516100c99190610643565b908152602001604051809103902060000190816100e69190610866565b50806000856040516100f89190610643565b90815260200160405180910390206002018190555050505050565b606080600080846040516101279190610643565b90815260200160405180910390206001016000856040516101489190610643565b90815260200160405180910390206000016000866040516101699190610643565b90815260200160405180910390206002015482805461018790610689565b80601f01602080910402602001604051908101604052809291908181526020018280546101b390610689565b80156102005780601f106101d557610100808354040283529160200191610200565b820191906000526020600020905b8154815290600101906020018083116101e357829003601f168201915b5050505050925081805461021390610689565b80601f016020809104026020016040519081016040528092919081815260200182805461023f90610689565b801561028c5780601f106102615761010080835404028352916020019161028c565b820191906000526020600020905b81548152906001019060200180831161026f57829003601f168201915b505050505091509250925092509193909250565b6000604051905090565b600080fd5b600080fd5b600080fd5b600080fd5b6000601f19601f8301169050919050565b7f4e487b7100000000000000000000000000000000000000000000000000000000600052604160045260246000fd5b610307826102be565b810181811067ffffffffffffffff82111715610326576103256102cf565b5b80604052505050565b60006103396102a0565b905061034582826102fe565b919050565b600067ffffffffffffffff821115610365576103646102cf565b5b61036e826102be565b9050602081019050919050565b82818337600083830152505050565b600061039d6103988461034a565b61032f565b9050828152602081018484840111156103b9576103b86102b9565b5b6103c484828561037b565b509392505050565b600082601f8301126103e1576103e06102b4565b5b81356103f184826020860161038a565b91505092915050565b6000819050919050565b61040d816103fa565b811461041857600080fd5b50565b60008135905061042a81610404565b92915050565b6000806000806080858703121561044a576104496102aa565b5b600085013567ffffffffffffffff811115610468576104676102af565b5b610474878288016103cc565b945050602085013567ffffffffffffffff811115610495576104946102af565b5b6104a1878288016103cc565b935050604085013567ffffffffffffffff8111156104c2576104c16102af565b5b6104ce878288016103cc565b92505060606104df8782880161041b565b91505092959194509250565b600060208284031215610501576105006102aa565b5b600082013567ffffffffffffffff81111561051f5761051e6102af565b5b61052b848285016103cc565b91505092915050565b600081519050919050565b600082825260208201905092915050565b60005b8381101561056e578082015181840152602081019050610553565b60008484015250505050565b600061058582610534565b61058f818561053f565b935061059f818560208601610550565b6105a8816102be565b840191505092915050565b6105bc816103fa565b82525050565b600060608201905081810360008301526105dc818661057a565b905081810360208301526105f0818561057a565b90506105ff60408301846105b3565b949350505050565b600081905092915050565b600061061d82610534565b6106278185610607565b9350610637818560208601610550565b80840191505092915050565b600061064f8284610612565b915081905092915050565b7f4e487b7100000000000000000000000000000000000000000000000000000000600052602260045260246000fd5b600060028204905060018216806106a157607f821691505b6020821081036106b4576106b361065a565b5b50919050565b60008190508160005260206000209050919050565b60006020601f8301049050919050565b600082821b905092915050565b60006008830261071c7fffffffffffffffffffffffffffffffffffffffffffffffffffffffffffffffff826106df565b61072686836106df565b95508019841693508086168417925050509392505050565b6000819050919050565b600061076361075e610759846103fa565b61073e565b6103fa565b9050919050565b6000819050919050565b61077d83610748565b6107916107898261076a565b8484546106ec565b825550505050565b600090565b6107a6610799565b6107b1818484610774565b505050565b5b818110156107d5576107ca60008261079e565b6001810190506107b7565b5050565b601f82111561081a576107eb816106ba565b6107f4846106cf565b81016020851015610803578190505b61081761080f856106cf565b8301826107b6565b50505b505050565b600082821c905092915050565b600061083d6000198460080261081f565b1980831691505092915050565b6000610856838361082c565b9150826002028217905092915050565b61086f82610534565b67ffffffffffffffff811115610888576108876102cf565b5b6108928254610689565b61089d8282856107d9565b600060209050601f8311600181146108d057600084156108be578287015190505b6108c8858261084a565b865550610930565b601f1984166108de866106ba565b60005b82811015610906578489015182556001820191506020850194506020810190506108e1565b86831015610923578489015161091f601f89168261082c565b8355505b6001600288020188555050505b50505050505056fea26469706673582212201231c2ad595b63355c14fc327361d44bd61c16d8d1ec84e6e9b13f8a2ca1eded64736f6c63430008110033",
  "immutableReferences": {},
  "source": "pragma solidity >=0.8.7;\n\ncontract Rooms {\n    struct Room{\n        string roomHash;\n        string roomOwner;\n        uint256 roomID;\n    }\n\n    mapping (string => Room) AllRooms;\n\n    function setRoomInfo(string memory accountId, string memory r_owner, string memory r_hash, uint256 roomID) public {\n        AllRooms[accountId].roomOwner = r_owner;\n        AllRooms[accountId].roomHash = r_hash;\n        AllRooms[accountId].roomID = roomID;\n    }\n\n    function getRoomInfo(string memory accountId) public view returns(string memory r_owner, string memory r_hash, uint256 roomID) {\n        return (AllRooms[accountId].roomOwner, AllRooms[accountId].roomHash, AllRooms[accountId].roomID);\n    }\n\n}",
  "sourcePath": "C:\\Users\\pasfi\\smart-building-main\\truffle\\contracts\\Rooms.sol",
  "compiler": {
    "name": "solc",
    "version": "0.8.17+commit.8df45f5f.Emscripten.clang"
  },
  "schemaVersion": "3.4.10",
  "updatedAt": "2022-12-19T10:30:43.186Z",
  "networkType": "ethereum",
  "devdoc": {
    "kind": "dev",
    "methods": {},
    "version": 1
  },
  "userdoc": {
    "kind": "user",
    "methods": {},
    "version": 1
  }
}